:100000000C9464000C948C000C948C000C948C0068
:100010000C948C000C948C000C948C000C948C0030
:100020000C948C000C948C000C948C000C948C0020
:100030000C948C000C948C000C948C000C948C0010
:100040000C9477060C948C000C94BE030C94F00373
:100050000C948C000C948C000C948C000C948C00F0
:100060000C948C000C948C0000000008000201002D
:100070000003040700000000000000000102040863
:100080001020408001020408102001020408102002
:10009000040404040404040402020202020203032E
:1000A00003030303000000002300260029000000D2
:1000B0000000250028002B0000000000240027007D
:1000C0002A009C012004A20111241FBECFEFD8E01A
:1000D000DEBFCDBF11E0A0E0B1E0ECE7F3E102C08C
:1000E00005900D92A037B107D9F722E0A0E7B1E063
:1000F00001C01D92A032B207E1F710E0C6ECD0E0DB
:1001000004C02297FE010E942C07C23CD107C9F708
:100110000E9464040C94B1090C94000026E040E0B5
:1001200051EE60E070E086E791E00E945C0360E0E1
:100130008CE00E94170260E08BE00E94170260E0F2
:100140008AE00E94170260E089E00E94170260E0E6
:1001500088E00E94170260E087E00E94170260E0DA
:1001600086E00E94170260E085E00E94170260E0CE
:1001700084E00E94170260E083E00C941702CF93A2
:10018000DF93CDB7DEB72C970FB6F894DEBF0FBE66
:10019000CDBF67E071E080E791E00E9458068823B8
:1001A00011F08EE031C06CE071E080E791E00E94D8
:1001B0005806882311F08FE027C061E171E080E7E5
:1001C00091E00E945806882311F080E11DC066E18D
:1001D00071E080E791E00E945806882311F081E1E8
:1001E00013C06BE171E080E791E00E94580688231C
:1001F00011F082E109C060E271E080E791E00E94C5
:100200005806882321F083E10E94D10165C065E290
:1002100071E080E791E00E945806882311F083E0A6
:1002200059C06AE271E080E791E00E945806882395
:1002300011F084E04FC06FE271E080E791E00E942E
:100240005806882311F085E045C064E371E080E73B
:1002500091E00E945806882311F086E03BC069E3D4
:1002600071E080E791E00E945806882311F087E052
:1002700031C06EE371E080E791E00E945806882368
:1002800011F088E027C063E471E080E791E00E940C
:100290005806882311F089E01DC068E471E080E70A
:1002A00091E00E945806882311F08AE013C06EE4A2
:1002B00071E080E791E00E945806882311F08BE0FE
:1002C00009C064E571E080E791E00E945806882348
:1002D00021F18CE00E9450024AE0BC01CE01079659
:1002E0000E94D305BE01695F7F4FCE0101960E9437
:1002F000B2056DE571E0CE0101960E943E06BC019B
:1003000086E791E00E94B104CE0101960E94170594
:10031000CE0107960E94170506C06AE571E086E7E0
:1003200091E00E94BF042C960FB6F894DEBF0FBE7A
:10033000CDBFDF91CF9108956EE571E080E791E048
:100340000C94850580E791E00C941705CF93DF931B
:1003500000D000D000D0CDB7DEB786E791E00E9494
:10036000790218161906A4F44AE766E771E0CE018F
:1003700001960E94EF04BE016F5F7F4F80E791E01E
:100380000E949B05CE0101960E9417050E94BF00A6
:1003900026960FB6F894DEBF0FBECDBFDF91CF918A
:1003A00008958E3008F08E5087702091060190E4F9
:1003B000299F90011124822B80937C0080917A00E8
:1003C000806480937A0080917A0086FDFCCF8091D2
:1003D00078002091790090E0922B0895833081F08D
:1003E00028F4813099F08230A1F008958730A9F087
:1003F0008830B9F08430D1F4809180008F7D03C0C3
:10040000809180008F7780938000089584B58F77E6
:1004100002C084B58F7D84BD08958091B0008F7730
:1004200003C08091B0008F7D8093B0000895CF937A
:10043000DF9390E0FC01E458FF4F2491FC01E0576A
:10044000FF4F8491882349F190E0880F991FFC01A8
:10045000E854FF4FA591B49182559F4FFC01C5917F
:10046000D4919FB7611108C0F8948C912095822394
:100470008C93888182230AC0623051F4F8948C9165
:10048000322F309583238C938881822B888304C0FC
:10049000F8948C91822B8C939FBFDF91CF9108951C
:1004A000CF93DF93282F30E0F901E859FF4F849173
:1004B000F901E458FF4FD491F901E057FF4FC4917F
:1004C000CC2391F081110E94EE01EC2FF0E0EE0FB1
:1004D000FF1FEC55FF4FA591B4912C912D2381E086
:1004E00090E021F480E002C080E090E0DF91CF91C5
:1004F0000895FC01818D228D90E0805C9F4F821BCE
:1005000091098F7399270895FC01918D828D981719
:1005100031F0828DE80FF11D858D90E008958FEF09
:100520009FEF0895FC01918D828D981761F0828D67
:10053000DF01A80FB11D5D968C91928D9F5F9F7317
:10054000928F90E008958FEF9FEF089586E194E0F9
:10055000892B49F080E090E0892B29F00E94160455
:1005600081110C9400000895FC01848DDF01A80F17
:10057000B11DA35ABF4F2C91848D90E001968F73CB
:100580009927848FA689B7892C93A089B1898C91EA
:1005900080648C93938D848D981306C00288F389B0
:1005A000E02D80818F7D80830895CF93DF93EC01D0
:1005B000888D8823C9F0EA89FB89808185FD05C083
:1005C000A889B9898C9186FD0FC00FB607FCF5CFBD
:1005D000808185FFF2CFA889B9898C9185FFEDCF05
:1005E000CE010E94B402E7CFDF91CF910895CF9260
:1005F000DF92FF920F931F93CF93DF931F92CDB79C
:10060000DEB76C0181E0D60158968C9358975B96C3
:100610009C915B975C968C915C97981307C0509661
:10062000ED91FC915197808185FD2EC0F601038DDF
:1006300010E00F5F1F4F0F731127F02EF601848D0E
:10064000F81211C00FB607FCF9CFD6015096ED9104
:10065000FC915197808185FFF1CFC60169830E948B
:10066000B4026981EBCF838DE80FF11DE35AFF4F90
:100670006083D6015B960C935B975296ED91FC914B
:100680005397808180620CC0D6015696ED91FC9103
:10069000579760835096ED91FC91519780818064CB
:1006A000808381E090E00F90DF91CF911F910F91B7
:1006B000FF90DF90CF900895BF92CF92DF92EF929C
:1006C000FF92CF93DF93EC016A017B01B22EE889A0
:1006D000F98982E08083411581EE58076105710533
:1006E000A1F060E079E08DE390E0A70196010E941F
:1006F0000807215031094109510956954795379509
:100700002795211580E1380798F0E889F98910824A
:1007100060E874E88EE190E0A70196010E94080766
:10072000215031094109510956954795379527952B
:10073000EC85FD853083EE85FF852083188EEC895E
:10074000FD89B082EA89FB89808180618083EA89A2
:10075000FB89808188608083EA89FB898081806849
:100760008083EA89FB8980818F7D8083DF91CF91AF
:10077000FF90EF90DF90CF90BF9008951F920F925F
:100780000FB60F9211242F938F939F93EF93FF93A4
:10079000E0918601F09187018081E0918C01F091D8
:1007A0008D0182FD12C0908180918F018F5F8F73C8
:1007B00020919001821751F0E0918F01F0E0EA580A
:1007C000FE4F958F80938F0101C08081FF91EF9143
:1007D0009F918F912F910F900FBE0F901F901895A2
:1007E0001F920F920FB60F9211242F933F934F93A6
:1007F0005F936F937F938F939F93AF93BF93EF9389
:10080000FF9386E791E00E94B402FF91EF91BF91C0
:10081000AF919F918F917F916F915F914F913F9198
:100820002F910F900FBE0F901F90189586E791E0C3
:100830000E94790221E0892B09F420E0822F08959B
:10084000109279011092780188EE93E0A0E0B0E078
:1008500080937A0190937B01A0937C01B0937D01FA
:1008600083E691E0909377018093760185EC90E0A8
:10087000909383018093820184EC90E090938501B2
:100880008093840180EC90E09093870180938601AF
:1008900081EC90E0909389018093880182EC90E054
:1008A00090938B0180938A0186EC90E090938D0168
:1008B00080938C0110928F011092900110929101FF
:1008C00010929201089508950E94CD060E9463043B
:1008D0000E948E00C6EAD2E00E94A6012097E1F3B2
:1008E0000E94A602F9CFCF92DF92EF92FF920F9370
:1008F0001F93CF93DF936C017A01EB01E60EF71E95
:1009000000E010E0CE15DF0561F06991D601ED91B0
:10091000FC910190F081E02DC6010995080F191F87
:10092000F1CFC801DF91CF911F910F91FF90EF9010
:10093000DF90CF9008956115710581F0DB010D9076
:100940000020E9F7AD0141505109461B570BDC016E
:10095000ED91FC910280F381E02D099480E090E01C
:100960000895DC01ED91FC91DB0114964D915C91B1
:1009700015976D917C910280F381E02D09940C9480
:100980009B040F931F93CF93DF93EC010E94C1064A
:10099000688779878A879B87E881F9810680F78154
:1009A000E02DCE01099597FF15C00E94C10608856C
:1009B00019852A853B85601B710B820B930B0C817B
:1009C0001D812E813F81601771078207930720F3F5
:1009D0008FEF9FEFDF91CF911F910F910895EF92CD
:1009E000FF920F931F93CF93DF93EC018B01E42EC3
:1009F0006EE571E00E948505C8010E94C104FF24D4
:100A0000E7FCF09497FD0BC08E159F0541F0682F11
:100A1000CE010E942B06C8010E94C104F3CFCE0173
:100A2000DF91CF911F910F91FF90EF900895FC01FE
:100A3000808191810C94C807CF93DF93EC0188816A
:100A40009981009711F00E94C807198218821D82AF
:100A50001C821B821A82DF91CF9108950F931F93FE
:100A6000CF93DF93EC018B016F5F7F4F888199817A
:100A70000E945708009731F0998388831B830A836B
:100A800081E001C080E0DF91CF911F910F91089527
:100A9000CF93DF93EC0188819981892B29F08A819A
:100AA0009B818617970760F4CE010E942E0588234C
:100AB00041F08C819D81892B19F4E881F9811082A4
:100AC00081E0DF91CF910895EF92FF920F931F93F2
:100AD000CF93DF93EC017B018A01BA010E944805A4
:100AE000811104C0CE010E941C0507C01D830C8328
:100AF000B701888199810E943309CE01DF91CF919E
:100B00001F910F91FF90EF900895FC0111821082C8
:100B100013821282158214826115710559F0FB014E
:100B200001900020E9F7AF0141505109461B570BD6
:100B30000C9464050895CF93DF93EC01FB018617B5
:100B4000970761F0608171816115710529F0448119
:100B500055810E94640502C00E941C05CE01DF91F0
:100B6000CF910895FC0111821082138212821582A6
:100B700014820C949B05CF93DF93EC0161157105F2
:100B800061F0FB0101900020E9F7AF0141505109EC
:100B9000461B570B0E94640502C00E941C05CE0133
:100BA000DF91CF9108950F931F93CF93DF93CDB72C
:100BB000DEB762970FB6F894DEBF0FBECDBF8C01D3
:100BC000CB01F801118210821382128215821482E5
:100BD00050E0BE016F5F7F4F0E943A09BE016F5F18
:100BE0007F4FC8010E94BB0562960FB6F894DEBF26
:100BF0000FBECDBFDF91CF911F910F910895EF925E
:100C0000FF920F931F93CF93DF93EC017B010C8135
:100C10001D816115710511F480E016C04115510563
:100C200091F0040F151FB8010E9448058823A1F315
:100C3000288139818C819D81B701820F931F0E9489
:100C400033091D830C8381E0DF91CF911F910F91B8
:100C5000FF90EF900895CF93DF9300D0CDB7DEB72C
:100C600069831A8241E050E0BE016F5F7F4F0E94AE
:100C7000FF050F900F90DF91CF910895CF93DF93F1
:100C8000EC016115710569F0FB0101900020E9F7A5
:100C9000AF0141505109461B570B0E94FF058111BE
:100CA00003C0CE010E941C05CE01DF91CF910895B3
:100CB000FC0124813581232B31F421E0611571057C
:100CC000A1F0FB0108C0FC018081918161157105D3
:100CD00031F421E0FC018081882339F005C00E94B5
:100CE0002A0921E0892B09F020E0822F08951F9224
:100CF0000F920FB60F9211242F933F938F939F93D0
:100D0000AF93BF938091140290911502A0911602A7
:100D1000B09117023091130223E0230F2D3720F4F6
:100D20000196A11DB11D05C026E8230F0296A11D45
:100D3000B11D209313028093140290931502A09387
:100D40001602B09317028091180290911902A09197
:100D50001A02B0911B020196A11DB11D80931802C9
:100D600090931902A0931A02B0931B02BF91AF9106
:100D70009F918F913F912F910F900FBE0F901F90D9
:100D800018952FB7F8946091140270911502809114
:100D90001602909117022FBF0895789484B582604F
:100DA00084BD84B5816084BD85B5826085BD85B50F
:100DB000816085BDEEE6F0E0808181608083E1E8BE
:100DC000F0E01082808182608083808181608083F6
:100DD000E0E8F0E0808181608083E1EBF0E08081F9
:100DE00084608083E0EBF0E0808181608083EAE7CB
:100DF000F0E0808184608083808182608083808154
:100E0000816080838081806880831092C100089512
:100E1000A1E21A2EAA1BBB1BFD010DC0AA1FBB1FFE
:100E2000EE1FFF1FA217B307E407F50720F0A21B70
:100E3000B30BE40BF50B661F771F881F991F1A94DD
:100E400069F760957095809590959B01AC01BD0107
:100E5000CF010895EE0FFF1F0590F491E02D099446
:100E6000CF93DF938230910510F482E090E0E0911F
:100E70001E02F0911F0220E030E0A0E0B0E03097C9
:100E800039F14081518148175907B8F0481759077F
:100E900071F482819381109729F013969C938E931D
:100EA00012972CC090931F0280931E0227C0211519
:100EB000310531F04217530718F0A901DB0101C0D9
:100EC000EF019A01BD01DF010280F381E02DD7CF50
:100ED00021153105F9F0281B390B2430310580F438
:100EE0008A819B816115710521F0FB0193838283C7
:100EF00004C090931F0280931E02FE01329644C0EC
:100F0000FE01E20FF31F819391932250310939833F
:100F100028833AC020911C0230911D02232B41F4FA
:100F2000209102013091030130931D0220931C0295
:100F300020910001309101012115310541F42DB7B7
:100F40003EB74091040150910501241B350BE091FF
:100F50001C02F0911D02E217F307A0F42E1B3F0BB9
:100F60002817390778F0AC014E5F5F4F241735071B
:100F700048F04E0F5F1F50931D0240931C02819357
:100F8000919302C0E0E0F0E0CF01DF91CF910895AE
:100F9000CF93DF93009709F487C0FC013297138247
:100FA0001282C0911E02D0911F02209781F42081ED
:100FB0003181280F391F80911C0290911D028217E8
:100FC000930779F5F0931D02E0931C026DC0DE01DA
:100FD00020E030E0AE17BF0750F412964D915C91BF
:100FE00013979D014115510509F1DA01F3CFB38340
:100FF000A28340815181840F951F8A179B0771F44A
:101000008D919C911197840F951F029691838083F7
:1010100012968D919C9113979383828321153105AC
:1010200029F4F0931F02E0931E023EC0D9011396EB
:10103000FC93EE9312974D915D91A40FB51FEA17A3
:10104000FB0779F480819181840F951F0296D90165
:1010500011969C938E938281938113969C938E9389
:101060001297E0E0F0E08A819B81009719F0FE0181
:10107000EC01F9CFCE01029628813981820F931FAE
:1010800020911C0230911D022817390769F430970E
:1010900029F410921F0210921E0202C013821282C3
:1010A000D0931D02C0931C02DF91CF910895A0E060
:1010B000B0E0EDE5F8E00C947E09EC01CB0120975F
:1010C00019F40E943007B8C0FE01E60FF71F9E0119
:1010D00022503109E217F30708F4ACC0D9010D9191
:1010E0001C91119706171707B8F00530110508F481
:1010F0009FC0A801445051094617570708F498C0EB
:1011000002501109061B170B019311936D937C93E9
:10111000CF010E94C8078CC05B01A01AB10A4E0122
:10112000800E911EA0911E02B0911F02612C712CA5
:1011300060E070E0109709F449C0A815B905C9F539
:10114000ED90FC901197670142E0C40ED11CCA14C7
:10115000DB0478F147018A189B08640142E0C40E61
:10116000D11C1296BC9012971396AC91B5E0CB1699
:10117000D10440F0B282A38391828082D9018D9301
:101180009C9309C00E5F1F4F0E0D1F1DF9011183A7
:101190000083EB2DFA2F6115710531F0DB011396F9
:1011A000FC93EE93129744C0F0931F02E0931E024B
:1011B0003FC06D917C9111976616770608F43B014C
:1011C000BD0112960D90BC91A02DB4CF60911C0270
:1011D00070911D0268157905E9F468167906D0F456
:1011E00040910001509101014115510541F44DB765
:1011F0005EB76091040170910501461B570BE4171F
:10120000F507C0F4F0931D02E0931C02F9019183ED
:1012100080830EC00E9430077C01009759F0A8011E
:10122000BE010E942109CE010E94C807C70104C067
:10123000CE0102C080E090E0CDB7DEB7EEE00C94C6
:101240009A09FB01DC0102C001900D92415050400F
:10125000D8F70895FB01DC018D91019080190110F0
:10126000D9F3990B0895FB01DC0101900D92002048
:10127000E1F708954532510520F4423010F00C9406
:101280004509FB011082CB010895BB274A3031F498
:10129000992322F4BDE2909581959F4F0C945109BA
:1012A000BB27FB015527AA27880F991FAA1FA41740
:1012B00010F0A41B83955051B9F7A05DAA3308F034
:1012C000A95DA193009779F7B111B1931192CB0168
:1012D0000C946A09DC01FC01672F71917723E1F717
:1012E000329704C07C916D9370836291AE17BF07F3
:1012F000C8F308952F923F924F925F926F927F9220
:101300008F929F92AF92BF92CF92DF92EF92FF9215
:101310000F931F93CF93DF93CDB7DEB7CA1BDB0BC1
:101320000FB6F894DEBF0FBECDBF09942A88398866
:1013300048885F846E847D848C849B84AA84B9846D
:10134000C884DF80EE80FD800C811B81AA81B98179
:10135000CE0FD11D0FB6F894DEBF0FBECDBFED018D
:10136000089510E0C6ECD0E004C0FE010E942C07F6
:0C1370002296C83CD107C9F7F894FFCFC3
:10137C0000002002800001616E613000616E6131FD
:10138C0000616E613200616E613300616E61340028
:10139C00616E6135006469673300646967340064A9
:1013AC00696735006469673600646967370064698A
:1013BC0067380064696739006469673130006469B3
:1013CC0067313100646967313200353535230000EF
:1013DC00000000F7027304790292028402D5020025
:00000001FF
